:100000000C945D000C947A000C947A000C947A00A5
:100010000C947A000C947A000C947A000C94D90415
:100020000C947A000C947A000C947A000C947A0068
:100030000C947A000C947A000C947A000C947A0058
:100040000C9429010C947A000C947A000C947A0098
:100050000C947A000C947A000C947A000C947A0038
:100060000C947A000C947A00000000070002010052
:100070000003040600000000000000000102040864
:100080001020408001020408102001020408102002
:10009000040404040404040402020202020203032E
:1000A0000303030300000000250028002B000000CC
:1000B0000000240027002A00020011241FBECFEFF9
:1000C000D8E0DEBFCDBF11E0A0E0B1E0EAE2FBE0A6
:1000D00002C005900D92A230B107D9F711E0A2E05D
:1000E000B1E001C01D92A232B107E1F70E948F0278
:1000F0000C9435050C94000061E084E00E9420021D
:1001000061E087E00E94200261E08DE00E94200211
:1001100060E084E00E94590260E087E00C9459029C
:1001200080910201909103010196909303018093C5
:10013000020120E030E0A90168EB71E087E00E9455
:100140009C0260E971E080E090E00E94960160E02E
:1001500084E00E94590220E030E0A90160E773E0EA
:1001600087E00E949C0268EC70E080E090E00E94D2
:10017000960161E084E00E94590220E030E0A9018C
:1001800068E871E087E00E949C0260E971E080E02D
:1001900090E00E94960160E084E00E94590220E015
:1001A00030E0A90160E173E087E00E949C0268EC06
:1001B00070E080E090E00E94960161E084E00E949F
:1001C000590220E030E0A9016BE072E087E00E9474
:1001D0009C0260E971E080E090E00E94960160E09E
:1001E00084E00E94590220E030E0A90167E174E058
:1001F00087E00E949C0268EC70E080E090E00E9442
:10020000960161E084E00E94590220E030E0A901FB
:1002100068E871E087E00E949C0260E971E080E09C
:1002200090E00E94960160E084E00E94590220E084
:1002300030E0A90160E173E087E00E949C0268EC75
:1002400070E080E090E00E94960161E084E00C9410
:1002500059021F920F920FB60F9211242F933F93C2
:100260008F939F93AF93BF93809105019091060167
:10027000A0910701B09108013091040123E0230F00
:100280002D3720F40196A11DB11D05C026E8230FCE
:100290000296A11DB11D2093040180930501909346
:1002A0000601A0930701B093080180910901909184
:1002B0000A01A0910B01B0910C010196A11DB11D85
:1002C0008093090190930A01A0930B01B0930C0154
:1002D000BF91AF919F918F913F912F910F900FBE42
:1002E0000F901F9018953FB7F89480910901909155
:1002F0000A01A0910B01B0910C0126B5A89B05C085
:100300002F3F19F00196A11DB11D3FBF6627782F21
:10031000892F9A2F620F711D811D911D42E0660F7A
:10032000771F881F991F4A95D1F70895CF92DF92C2
:10033000EF92FF92CF93DF936B017C010E947301D8
:10034000EB01C114D104E104F10479F00E947301BE
:100350006C1B7D0B683E7340A0F381E0C81AD10886
:10036000E108F108C851DC4FECCFDF91CF91FF904D
:10037000EF90DF90CF900895789484B5826084BD2B
:1003800084B5816084BD85B5826085BD85B5816099
:1003900085BDEEE6F0E0808181608083E1E8F0E0F9
:1003A0001082808182608083808181608083E0E828
:1003B000F0E0808181608083E1EBF0E08081846007
:1003C0008083E0EBF0E0808181608083EAE7F0E009
:1003D000808184608083808182608083808181606D
:1003E00080838081806880831092C100089583306B
:1003F00081F028F4813099F08230A1F008958630A0
:10040000A9F08730B9F08430D1F4809180008F7DDD
:1004100003C0809180008F7780938000089584B519
:100420008F7702C084B58F7D84BD08958091B00020
:100430008F7703C08091B0008F7D8093B0000895C6
:10044000CF93DF9390E0FC01E458FF4F2491FC012F
:10045000E057FF4F8491882349F190E0880F991F5E
:10046000FC01E255FF4FA591B4918C559F4FFC01C3
:10047000C591D4919FB7611108C0F8948C912095D3
:1004800082238C93888182230AC0623051F4F894CD
:100490008C91322F309583238C938881822B888393
:1004A00004C0F8948C91822B8C939FBFDF91CF91E5
:1004B00008950F931F93CF93DF931F92CDB7DEB7AD
:1004C000282F30E0F901E859FF4F8491F901E458F1
:1004D000FF4F1491F901E057FF4F04910023C9F039
:1004E000882321F069830E94F7016981E02FF0E001
:1004F000EE0FFF1FEC55FF4FA591B4919FB7F894F5
:100500008C91611103C01095812301C0812B8C93C4
:100510009FBF0F90DF91CF911F910F9108950E947F
:10052000BC010E947C00C0E0D0E00E9490002097B7
:10053000E1F30E940000F9CF3F924F925F926F92D9
:100540007F928F929F92AF92BF92CF92DF92EF9263
:10055000FF920F931F93CF93DF9300D000D0CDB7BE
:10056000DEB78B0129013A0190910001981721F023
:100570009F3F09F0D3C104C0E8EBF0E0349081C0A4
:1005800080930001E8EBF0E0E491EF3F09F4C6C18D
:10059000E13031F1E23009F44BC0E11171C014BC1B
:1005A00015BC94B5926094BD95B5916095BD282F0A
:1005B00030E0F901E057FF4FE491F0E0EE0FFF1F4C
:1005C000EC55FF4F4591549150931D0140931C01F0
:1005D000F901E458FF4F249120931B01312C53C0A3
:1005E0001092800010928100909181009860909309
:1005F000810090918100916090938100282F30E0DC
:10060000F901E057FF4FE491F0E0EE0FFF1FEC55CA
:10061000FF4F459154915093160140931501F901F4
:10062000E458FF4F249120931401332433942BC0BA
:100630001092B0001092B1009091B000926090932F
:10064000B0009091B10091609093B100282F30E0FC
:10065000F901E057FF4FE491F0E0EE0FFF1FEC557A
:10066000FF4F4591549150930F0140930E01F901B2
:10067000E458FF4F249120930D0152E0352E03C022
:100680003E2E37FC4BC161E00E9420024801A12CA4
:10069000B12C832D8D7F09F0C0C060E072E18AE744
:1006A00090E0A50194010E94650529833A834B835C
:1006B0005C8369017A0181E0C81AD108E108F10878
:1006C0009FEFC916D104E104F10409F008F49AC0BF
:1006D00060E472E48FE090E0A50194010E9465055A
:1006E00069017A01E1E0CE1AD108E108F108F2E0EF
:1006F0003F1219C08FEFC816D104E104F10409F0CC
:1007000008F487C060E970ED83E090E0A5019401F2
:100710000E94650569017A0191E0C91AD108E108D2
:10072000F10883E001C082E0EFEFCE16D104E104CE
:10073000F10409F008F467C068E478EE81E090E025
:10074000A50194010E94650569017A01F1E0CF1AC3
:10075000D108E108F1083320E1F082E038121BC033
:100760009FEFC916D104E104F10409F008F4D4C0E4
:1007700064E274EF80E090E0A50194010E946505B9
:1007800069017A01E1E0CE1AD108E108F10885E0BB
:1007900003C083E001C084E0FFEFCF16D104E10481
:1007A000F10489F180F162E17AE780E090E0A5014F
:1007B00094010E94650569017A0181E0C81AD10897
:1007C000E108F108311002C084E001C086E09FEF2B
:1007D000C916D104E104F104B1F0A8F0C980DA80AF
:1007E000EB80FC809AE0F594E794D794C7949A95AF
:1007F000D1F7E1E0CE1AD108E108F108332031F059
:1008000087E008C081E0332011F004C085E085BD99
:1008100034C082E08093B10030C060E072E18AE7CA
:1008200090E0A50194010E94650569017A01F1E05B
:10083000CF1AD108E108F108C114D10481E0E8061B
:10084000F10488F068E478EE81E090E0A50194017D
:100850000E94650569017A0191E0C91AD108E10891
:10086000F10893E001C091E0E1E03E1206C0809102
:100870008100887F892B8093810041145104610499
:10088000710471F0D801AA0FBB1FA30192010E944D
:10089000380528EE33E040E050E00E94430503C0F5
:1008A0002FEF3FEFA901F1E03F16A1F082E03816EB
:1008B00019F1311033C0C7BC20931E0130931F01C2
:1008C000409320015093210180916E0082608093BB
:1008D0006E0024C0D0928900C09288002093170136
:1008E000309318014093190150931A0180916F00C1
:1008F000826080936F0012C0C092B30020931001F9
:1009000030931101409312015093130180917000B4
:1009100082608093700002C084E07CCF0F900F90C3
:100920000F900F90DF91CF911F910F91FF90EF905B
:10093000DF90CF90BF90AF909F908F907F906F90FF
:100940005F904F903F900895813039F018F08230D9
:1009500051F0089510926E00089580916F008D7F80
:1009600080936F000895809170008D7F8093700058
:1009700081E08093B0008091B100887F8460809393
:10098000B1001092B3000895CF93C82F8091000159
:100990008C1307C0E8EBF0E084919FEF9093000187
:1009A00001C08FEF0E94A40460E08C2FCF910C94C3
:1009B00059021F920F920FB60F9211242F933F935B
:1009C0004F935F936F937F938F939F93AF93BF9357
:1009D000EF93FF938091100190911101A09112016A
:1009E000B0911301892B8A2B8B2B51F190910D0122
:1009F000E0910E01F0910F01808189278083809121
:100A0000100190911101A0911201B09113011816DB
:100A100019061A061B06C4F4809110019091110169
:100A2000A0911201B09113010197A109B10980931E
:100A3000100190931101A0931201B093130104C00F
:100A4000809100010E94C404FF91EF91BF91AF918A
:100A50009F918F917F916F915F914F913F912F91D6
:100A60000F900FBE0F901F901895F8940C9493055B
:100A70000E948405A59F900DB49F900DA49F800DAA
:100A8000911D11240895A1E21A2EAA1BBB1BFD0182
:100A90000DC0AA1FBB1FEE1FFF1FA217B307E4075D
:100AA000F50720F0A21BB30BE40BF50B661F771FB5
:100AB000881F991F1A9469F7609570958095909595
:100AC0009B01AC01BD01CF010895052E97FB1EF4DB
:100AD00000940E947C0557FD07D00E94430507FC47
:100AE00003D04EF40C947C0550954095309521959B
:100AF0003F4F4F4F5F4F089590958095709561954A
:100B00007F4F8F4F9F4F0895A29FB001B39FC001A9
:100B1000A39F700D811D1124911DB29F700D811D29
:0A0B20001124911D0895F894FFCFF1
:020B2A00FF00CA
:00000001FF
