:100000000C945D000C947A000C947A000C947A00A5
:100010000C947A000C947A000C947A000C943405B9
:100020000C947A000C947A000C947A000C947A0068
:100030000C947A000C947A000C947A000C947A0058
:100040000C9484010C947A000C947A000C947A003D
:100050000C947A000C947A000C947A000C947A0038
:100060000C947A000C947A00000000070002010052
:100070000003040600000000000000000102040864
:100080001020408001020408102001020408102002
:10009000040404040404040402020202020203032E
:1000A0000303030300000000250028002B000000CC
:1000B0000000240027002A00020011241FBECFEFF9
:1000C000D8E0DEBFCDBF11E0A0E0B1E0ECE8FFE09A
:1000D00002C005900D92A031B107D9F711E0A0E15F
:1000E000B1E001C01D92AF32B107E1F70E94EA0210
:1000F0000C9490050C94000061E08CE00C947B0261
:100100004F925F926F927F928F929F92AF92BF9227
:10011000CF92DF92EF92FF9280E00E94670162E34C
:1001200070E00E944C07709302016093010180917E
:100130001001E0900B01F0900C018823E1F020E029
:1001400030E0A901609103017091040180910501E3
:10015000909106010E94F80587FF08C08091000178
:100160008E9DB0018F9D700D112418C020E030E0ED
:10017000A901B70116C0B701882777FD8095982F90
:100180000E942A062091070130910801409109013F
:1001900050910A010E94DE060E94FC0520E030E03A
:1001A000A9018CE00E94F7024090030150900401E5
:1001B00060900501709006012091070130910801BF
:1001C0004091090150910A01C301B2010E949405B6
:1001D0006B017C0160930701709308018093090112
:1001E00090930A016091000170E080E090E00E942D
:1001F0002A064B015C019B01AC01C701B6010E94BC
:10020000DA06181654F020E030E040E85FE3C7015A
:10021000B6010E94F80587FF0CC077FA709477F852
:100220007094409203015092040160920501709213
:100230000601A5019401C701B6010E94DA0618164D
:10024000A4F42091030130910401409105015091E3
:100250000601C501B4010E949305609307017093E4
:1002600008018093090190930A0120E030E040E802
:100270005FE36091070170910801809109019091FD
:100280000A010E94F80587FF0CC080E090E0A0E81A
:10029000BFE38093070190930801A0930901B093F5
:1002A0000A016091010170910201882777FD809514
:1002B000982FFF90EF90DF90CF90BF90AF909F90DE
:1002C0008F907F906F905F904F900C94F1018E30E3
:1002D00008F08E50877020910D0190E4299F9001C5
:1002E0001124822B80937C0080917A00806480931B
:1002F0007A0080917A0086FDFCCF80917800209171
:10030000790090E0922B08951F920F920FB60F92F2
:1003100011242F933F938F939F93AF93BF9380911B
:10032000120190911301A0911401B0911501309127
:10033000110123E0230F2D3720F40196A11DB11DDB
:1003400005C026E8230F0296A11DB11D20931101BF
:100350008093120190931301A0931401B09315019F
:100360008091160190911701A0911801B091190187
:100370000196A11DB11D8093160190931701A093C2
:100380001801B0931901BF91AF919F918F913F9147
:100390002F910F900FBE0F901F9018953FB7F894B4
:1003A0008091160190911701A0911801B091190147
:1003B00026B5A89B05C02F3F19F00196A11DB11DC0
:1003C0003FBF6627782F892F9A2F620F711D811DDD
:1003D000911D42E0660F771F881F991F4A95D1F73C
:1003E0000895CF92DF92EF92FF92CF93DF936B014C
:1003F0007C010E94CE01EB01C114D104E104F1049F
:1004000079F00E94CE016C1B7D0B683E7340A0F317
:1004100081E0C81AD108E108F108C851DC4FECCFDF
:10042000DF91CF91FF90EF90DF90CF900895789477
:1004300084B5826084BD84B5816084BD85B58260E9
:1004400085BD85B5816085BDEEE6F0E08081816087
:100450008083E1E8F0E01082808182608083808187
:1004600081608083E0E8F0E0808181608083E1EB5F
:10047000F0E0808184608083E0EBF0E08081816047
:100480008083EAE7F0E080818460808380818260FD
:1004900080838081816080838081806880831092E6
:1004A000C1000895833081F028F4813099F08230C2
:1004B000A1F008958630A9F08730B9F08430D1F4E6
:1004C000809180008F7D03C0809180008F77809322
:1004D0008000089584B58F7702C084B58F7D84BD78
:1004E00008958091B0008F7703C08091B0008F7D18
:1004F0008093B0000895CF93DF9390E0FC01E4581F
:10050000FF4F2491FC01E057FF4F8491882349F16C
:1005100090E0880F991FFC01E255FF4FA591B4911F
:100520008C559F4FFC01C591D4919FB7611108C0B4
:10053000F8948C91209582238C93888182230AC021
:10054000623051F4F8948C91322F309583238C9340
:100550008881822B888304C0F8948C91822B8C93A1
:100560009FBFDF91CF9108950F931F93CF93DF9398
:100570001F92CDB7DEB7282F30E0F901E859FF4FC1
:100580008491F901E458FF4F1491F901E057FF4FAE
:1005900004910023C9F0882321F069830E9452024C
:1005A0006981E02FF0E0EE0FFF1FEC55FF4FA591A2
:1005B000B4919FB7F8948C91611103C01095812379
:1005C00001C0812B8C939FBF0F90DF91CF911F9122
:1005D0000F9108950E9417020E947C00C0E0D0E0B5
:1005E0000E9480002097E1F30E940000F9CF3F9223
:1005F0004F925F926F927F928F929F92AF92BF9233
:10060000CF92DF92EF92FF920F931F93CF93DF93DE
:1006100000D000D0CDB7DEB78B0129013A0190910F
:100620000E01981721F09F3F09F0D3C104C0E8EBF9
:10063000F0E0349081C080930E01E8EBF0E0E491AB
:10064000EF3F09F4C6C1E13031F1E23009F44BC0AB
:10065000E11171C014BC15BC94B5926094BD95B500
:10066000916095BD282F30E0F901E057FF4FE491EC
:10067000F0E0EE0FFF1FEC55FF4F45915491509362
:100680002A0140932901F901E458FF4F2491209356
:100690002801312C53C0109280001092810090915B
:1006A0008100986090938100909181009160909377
:1006B0008100282F30E0F901E057FF4FE491F0E08E
:1006C000EE0FFF1FEC55FF4F4591549150932301BE
:1006D00040932201F901E458FF4F24912093210116
:1006E000332433942BC01092B0001092B10090913B
:1006F000B00092609093B0009091B100916090939F
:10070000B100282F30E0F901E057FF4FE491F0E00D
:10071000EE0FFF1FEC55FF4F4591549150931C0174
:1007200040931B01F901E458FF4F249120931A01D3
:1007300052E0352E03C03E2E37FC4BC161E00E94D3
:100740007B024801A12CB12C832D8D7F09F0C0C004
:1007500060E072E18AE790E0A50194010E948207BF
:1007600029833A834B835C8369017A0181E0C81A4B
:10077000D108E108F1089FEFC916D104E104F104A2
:1007800009F008F49AC060E472E48FE090E0A501FB
:1007900094010E94820769017A01E1E0CE1AD10832
:1007A000E108F108F2E03F1219C08FEFC816D1043A
:1007B000E104F10409F008F487C060E970ED83E01A
:1007C00090E0A50194010E94820769017A0191E0FD
:1007D000C91AD108E108F10883E001C082E0EFEF17
:1007E000CE16D104E104F10409F008F467C068E40E
:1007F00078EE81E090E0A50194010E9482076901F2
:100800007A01F1E0CF1AD108E108F1083320E1F0D4
:1008100082E038121BC09FEFC916D104E104F10435
:1008200009F008F4D4C064E274EF80E090E0A50120
:1008300094010E94820769017A01E1E0CE1AD10891
:10084000E108F10885E003C083E001C084E0FFEF28
:10085000CF16D104E104F10489F180F162E17AE775
:1008600080E090E0A50194010E94820769017A016D
:1008700081E0C81AD108E108F108311002C084E013
:1008800001C086E09FEFC916D104E104F104B1F084
:10089000A8F0C980DA80EB80FC809AE0F594E794B8
:1008A000D794C7949A95D1F7E1E0CE1AD108E10820
:1008B000F108332031F087E008C081E0332011F0E7
:1008C00004C085E085BD34C082E08093B10030C0B3
:1008D00060E072E18AE790E0A50194010E9482073E
:1008E00069017A01F1E0CF1AD108E108F108C114D9
:1008F000D10481E0E806F10488F068E478EE81E054
:1009000090E0A50194010E94820769017A0191E0BB
:10091000C91AD108E108F10893E001C091E0E1E0D3
:100920003E1206C080918100887F892B80938100D0
:10093000411451046104710471F0D801AA0FBB1F66
:10094000A30192010E94410728EE33E040E050E00D
:100950000E94600703C02FEF3FEFA901F1E03F16AF
:10096000A1F082E0381619F1311033C0C7BC2093D2
:100970002B0130932C0140932D0150932E01809137
:100980006E00826080936E0024C0D0928900C09275
:100990008800209324013093250140932601509331
:1009A000270180916F00826080936F0012C0C09217
:1009B000B30020931D0130931E0140931F015093FB
:1009C00020018091700082608093700002C084E0FA
:1009D0007CCF0F900F900F900F90DF91CF911F91D0
:1009E0000F91FF90EF90DF90CF90BF90AF909F90CE
:1009F0008F907F906F905F904F903F9008958130DF
:100A000039F018F0823051F0089510926E00089578
:100A100080916F008D7F80936F00089580917000AA
:100A20008D7F8093700081E08093B0008091B10051
:100A3000887F84608093B1001092B3000895CF93B3
:100A4000C82F80910E018C1307C0E8EBF0E0849171
:100A50009FEF90930E0101C08FEF0E94FF0460E0B2
:100A60008C2FCF910C94B4021F920F920FB60F925D
:100A700011242F933F934F935F936F937F938F93A3
:100A80009F93AF93BF93EF93FF9380911D0190913C
:100A90001E01A0911F01B0912001892B8A2B8B2B65
:100AA00051F190911A01E0911B01F0911C0180819C
:100AB0008927808380911D0190911E01A0911F01C3
:100AC000B0912001181619061A061B06C4F480916D
:100AD0001D0190911E01A0911F01B091200101976D
:100AE000A109B10980931D0190931E01A0931F01DC
:100AF000B093200104C080910E010E941F05FF9158
:100B0000EF91BF91AF919F918F917F916F915F9185
:100B10004F913F912F910F900FBE0F901F901895FE
:100B2000F8940C94C4075058BB27AA270ED008C1CC
:100B3000F9D030F0FED020F031F49F3F11F41EF4D4
:100B4000EEC00EF4E095E7FBE4C0E92F0AD180F394
:100B5000BA17620773078407950718F071F49EF5BA
:100B600022C10EF4E0950B2EBA2FA02D0B01B90176
:100B700090010C01CA01A0011124FF27591B99F013
:100B8000593F50F4503E68F11A16F040A22F232F1F
:100B9000342F4427585FF3CF469537952795A7956F
:100BA000F0405395C9F77EF41F16BA0B620B730B16
:100BB000840BBAF09150A1F0FF0FBB1F661F771F87
:100BC000881FC2F70EC0BA0F621F731F841F48F43C
:100BD000879577956795B795F7959E3F08F0B3CFC2
:100BE0009395880F08F09927EE0F979587950895AC
:100BF0006CD008F481E00895BCD088F09F5790F045
:100C0000B92F9927B751A0F0D1F0660F771F881F31
:100C1000991F1AF0BA95C9F712C0B13081F0C3D04C
:100C2000B1E00895C0C0672F782F8827B85F39F0EA
:100C3000B93FCCF3869577956795B395D9F73EF490
:100C400090958095709561957F4F8F4F9F4F089538
:100C5000E89409C097FB3EF4909580957095619556
:100C60007F4F8F4F9F4F9923A9F0F92F96E9BB270C
:100C70009395F695879577956795B795F111F8CF88
:100C8000FAF4BB0F11F460FF1BC06F5F7F4F8F4FF3
:100C90009F4F16C0882311F096E911C0772321F0E9
:100CA0009EE8872F762F05C0662371F096E8862F81
:100CB00070E060E02AF09A95660F771F881FDAF7D8
:100CC000880F9695879597F90895990F0008550F05
:100CD000AA0BE0E8FEEF16161706E807F907C0F0C2
:100CE00012161306E407F50798F0621B730B840BCA
:100CF000950B39F40A2661F0232B242B252B21F4A4
:100D000008950A2609F4A140A6958FEF811D811D43
:100D1000089597F99F6780E870E060E008959FEF7D
:100D200080EC089500240A94161617061806090682
:100D3000089500240A941216130614060506089551
:100D4000092E0394000C11F4882352F0BB0F40F4D9
:100D5000BF2B11F460FF04C06F5F7F4F8F4F9F4F19
:100D6000089557FD9058440F551F59F05F3F71F09B
:100D70004795880F97FB991F61F09F3F79F0879502
:100D80000895121613061406551FF2CF4695F1DF8B
:100D900008C0161617061806991FF1CF869571051B
:100DA000610508940895E894BB2766277727CB014F
:100DB00097F908958ADF08F48FEF08950BD0C0CF1C
:100DC000B1DF28F0B6DF18F0952309F0A2CFA7CF46
:100DD0001124EACFC6DFA0F3959FD1F3950F50E021
:100DE000551F629FF001729FBB27F00DB11D639FDD
:100DF000AA27F00DB11DAA1F649F6627B00DA11D83
:100E0000661F829F2227B00DA11D621F739FB00D28
:100E1000A11D621F839FA00D611D221F749F332798
:100E2000A00D611D231F849F600D211D822F762F31
:100E30006A2F11249F5750408AF0E1F088234AF02E
:100E4000EE0FFF1FBB1F661F771F881F915050407A
:100E5000A9F79E3F510570F05CCFA6CF5F3FECF342
:100E6000983EDCF3869577956795B795F795E79566
:100E70009F5FC1F7FE2B880F911D9695879597F977
:100E800008950E94A107A59F900DB49F900DA49F67
:100E9000800D911D1124089597FB072E16F40094E0
:100EA00007D077FD09D00E94B00707FC05D03EF4BB
:100EB000909581959F4F0895709561957F4F089506
:100EC000A1E21A2EAA1BBB1BFD010DC0AA1FBB1F4E
:100ED000EE1FFF1FA217B307E407F50720F0A21BC0
:100EE000B30BE40BF50B661F771F881F991F1A942D
:100EF00069F760957095809590959B01AC01BD0157
:100F0000CF010895052E97FB1EF400940E949907C7
:100F100057FD07D00E94600707FC03D04EF40C94E5
:100F2000990750954095309521953F4F4F4F5F4F12
:100F3000089590958095709561957F4F8F4F9F4F45
:100F40000895A29FB001B39FC001A39F700D811DA2
:100F50001124911DB29F700D811D1124911D0895C2
:100F6000AA1BBB1B51E107C0AA1FBB1FA617B707CF
:100F700010F0A61BB70B881F991F5A95A9F78095EB
:0C0F80009095BC01CD010895F894FFCFBE
:100F8C00020A000AD7233D0000803FC80001FF0081
:00000001FF
